{
  "contractName": "StakeTokenWrapper",
  "abi": [
    {
      "constant": true,
      "inputs": [],
      "name": "stakeToken",
      "outputs": [
        {
          "internalType": "contract IERC20",
          "name": "",
          "type": "address"
        }
      ],
      "payable": false,
      "stateMutability": "view",
      "type": "function"
    },
    {
      "constant": true,
      "inputs": [],
      "name": "totalSupply",
      "outputs": [
        {
          "internalType": "uint256",
          "name": "",
          "type": "uint256"
        }
      ],
      "payable": false,
      "stateMutability": "view",
      "type": "function"
    },
    {
      "constant": true,
      "inputs": [
        {
          "internalType": "address",
          "name": "account",
          "type": "address"
        }
      ],
      "name": "balanceOf",
      "outputs": [
        {
          "internalType": "uint256",
          "name": "",
          "type": "uint256"
        }
      ],
      "payable": false,
      "stateMutability": "view",
      "type": "function"
    },
    {
      "constant": false,
      "inputs": [
        {
          "internalType": "uint256",
          "name": "amount",
          "type": "uint256"
        }
      ],
      "name": "stake",
      "outputs": [],
      "payable": false,
      "stateMutability": "nonpayable",
      "type": "function"
    },
    {
      "constant": false,
      "inputs": [
        {
          "internalType": "uint256",
          "name": "amount",
          "type": "uint256"
        }
      ],
      "name": "withdraw",
      "outputs": [],
      "payable": false,
      "stateMutability": "nonpayable",
      "type": "function"
    }
  ],
  "bytecode": "0x60806040527344584ba6694c02ae90937f3c92da0022c61c52e06000806101000a81548173ffffffffffffffffffffffffffffffffffffffff021916908373ffffffffffffffffffffffffffffffffffffffff16021790555034801561006457600080fd5b50610a4e806100746000396000f3fe608060405234801561001057600080fd5b50600436106100575760003560e01c806318160ddd1461005c5780632e1a7d4d1461007a57806351ed6a30146100a857806370a08231146100f2578063a694fc3a1461014a575b600080fd5b610064610178565b6040518082815260200191505060405180910390f35b6100a66004803603602081101561009057600080fd5b8101908080359060200190929190505050610182565b005b6100b0610281565b604051808273ffffffffffffffffffffffffffffffffffffffff1673ffffffffffffffffffffffffffffffffffffffff16815260200191505060405180910390f35b6101346004803603602081101561010857600080fd5b81019080803573ffffffffffffffffffffffffffffffffffffffff1690602001909291905050506102a6565b6040518082815260200191505060405180910390f35b6101766004803603602081101561016057600080fd5b81019080803590602001909291905050506102ef565b005b6000600154905090565b610197816001546103f090919063ffffffff16565b6001819055506101ef81600260003373ffffffffffffffffffffffffffffffffffffffff1673ffffffffffffffffffffffffffffffffffffffff168152602001908152602001600020546103f090919063ffffffff16565b600260003373ffffffffffffffffffffffffffffffffffffffff1673ffffffffffffffffffffffffffffffffffffffff1681526020019081526020016000208190555061027e33826000809054906101000a900473ffffffffffffffffffffffffffffffffffffffff1673ffffffffffffffffffffffffffffffffffffffff1661043a9092919063ffffffff16565b50565b6000809054906101000a900473ffffffffffffffffffffffffffffffffffffffff1681565b6000600260008373ffffffffffffffffffffffffffffffffffffffff1673ffffffffffffffffffffffffffffffffffffffff168152602001908152602001600020549050919050565b6103048160015461050b90919063ffffffff16565b60018190555061035c81600260003373ffffffffffffffffffffffffffffffffffffffff1673ffffffffffffffffffffffffffffffffffffffff1681526020019081526020016000205461050b90919063ffffffff16565b600260003373ffffffffffffffffffffffffffffffffffffffff1673ffffffffffffffffffffffffffffffffffffffff168152602001908152602001600020819055506103ed3330836000809054906101000a900473ffffffffffffffffffffffffffffffffffffffff1673ffffffffffffffffffffffffffffffffffffffff16610593909392919063ffffffff16565b50565b600061043283836040518060400160405280601e81526020017f536166654d6174683a207375627472616374696f6e206f766572666c6f770000815250610699565b905092915050565b610506838473ffffffffffffffffffffffffffffffffffffffff1663a9059cbb905060e01b8484604051602401808373ffffffffffffffffffffffffffffffffffffffff1673ffffffffffffffffffffffffffffffffffffffff16815260200182815260200192505050604051602081830303815290604052907bffffffffffffffffffffffffffffffffffffffffffffffffffffffff19166020820180517bffffffffffffffffffffffffffffffffffffffffffffffffffffffff8381831617835250505050610759565b505050565b600080828401905083811015610589576040517f08c379a000000000000000000000000000000000000000000000000000000000815260040180806020018281038252601b8152602001807f536166654d6174683a206164646974696f6e206f766572666c6f77000000000081525060200191505060405180910390fd5b8091505092915050565b610693848573ffffffffffffffffffffffffffffffffffffffff166323b872dd905060e01b858585604051602401808473ffffffffffffffffffffffffffffffffffffffff1673ffffffffffffffffffffffffffffffffffffffff1681526020018373ffffffffffffffffffffffffffffffffffffffff1673ffffffffffffffffffffffffffffffffffffffff1681526020018281526020019350505050604051602081830303815290604052907bffffffffffffffffffffffffffffffffffffffffffffffffffffffff19166020820180517bffffffffffffffffffffffffffffffffffffffffffffffffffffffff8381831617835250505050610759565b50505050565b6000838311158290610746576040517f08c379a00000000000000000000000000000000000000000000000000000000081526004018080602001828103825283818151815260200191508051906020019080838360005b8381101561070b5780820151818401526020810190506106f0565b50505050905090810190601f1680156107385780820380516001836020036101000a031916815260200191505b509250505060405180910390fd5b5060008385039050809150509392505050565b6107788273ffffffffffffffffffffffffffffffffffffffff166109a4565b6107ea576040517f08c379a000000000000000000000000000000000000000000000000000000000815260040180806020018281038252601f8152602001807f5361666545524332303a2063616c6c20746f206e6f6e2d636f6e74726163740081525060200191505060405180910390fd5b600060608373ffffffffffffffffffffffffffffffffffffffff16836040518082805190602001908083835b602083106108395780518252602082019150602081019050602083039250610816565b6001836020036101000a0380198251168184511680821785525050505050509050019150506000604051808303816000865af19150503d806000811461089b576040519150601f19603f3d011682016040523d82523d6000602084013e6108a0565b606091505b509150915081610918576040517f08c379a00000000000000000000000000000000000000000000000000000000081526004018080602001828103825260208152602001807f5361666545524332303a206c6f772d6c6576656c2063616c6c206661696c656481525060200191505060405180910390fd5b60008151111561099e5780806020019051602081101561093757600080fd5b810190808051906020019092919050505061099d576040517f08c379a000000000000000000000000000000000000000000000000000000000815260040180806020018281038252602a8152602001806109f0602a913960400191505060405180910390fd5b5b50505050565b60008060007fc5d2460186f7233c927e7db2dcc703c0e500b653ca82273b7bfad8045d85a47060001b9050833f91506000801b82141580156109e65750808214155b9250505091905056fe5361666545524332303a204552433230206f7065726174696f6e20646964206e6f742073756363656564a265627a7a723158205b77da9f0bd50cde4da7bdb86ac9738eb543c4e981e015edef1791f1e1edfc2064736f6c63430005100032",
  "source": "\n// File: @openzeppelin/contracts/math/Math.sol\n\npragma solidity 0.5.16;\n\n/**\n * @dev Standard math utilities missing in the Solidity language.\n */\nlibrary Math {\n    /**\n     * @dev Returns the largest of two numbers.\n     */\n    function max(uint256 a, uint256 b) internal pure returns (uint256) {\n        return a >= b ? a : b;\n    }\n\n    /**\n     * @dev Returns the smallest of two numbers.\n     */\n    function min(uint256 a, uint256 b) internal pure returns (uint256) {\n        return a < b ? a : b;\n    }\n\n    /**\n     * @dev Returns the average of two numbers. The result is rounded towards\n     * zero.\n     */\n    function average(uint256 a, uint256 b) internal pure returns (uint256) {\n        // (a + b) / 2 can overflow, so we distribute\n        return (a / 2) + (b / 2) + ((a % 2 + b % 2) / 2);\n    }\n}\n\n// File: @openzeppelin/contracts/math/SafeMath.sol\n\npragma solidity 0.5.16;\n\n/**\n * @dev Wrappers over Solidity's arithmetic operations with added overflow\n * checks.\n *\n * Arithmetic operations in Solidity wrap on overflow. This can easily result\n * in bugs, because programmers usually assume that an overflow raises an\n * error, which is the standard behavior in high level programming languages.\n * `SafeMath` restores this intuition by reverting the transaction when an\n * operation overflows.\n *\n * Using this library instead of the unchecked operations eliminates an entire\n * class of bugs, so it's recommended to use it always.\n */\nlibrary SafeMath {\n    /**\n     * @dev Returns the addition of two unsigned integers, reverting on\n     * overflow.\n     *\n     * Counterpart to Solidity's `+` operator.\n     *\n     * Requirements:\n     * - Addition cannot overflow.\n     */\n    function add(uint256 a, uint256 b) internal pure returns (uint256) {\n        uint256 c = a + b;\n        require(c >= a, \"SafeMath: addition overflow\");\n\n        return c;\n    }\n\n    /**\n     * @dev Returns the subtraction of two unsigned integers, reverting on\n     * overflow (when the result is negative).\n     *\n     * Counterpart to Solidity's `-` operator.\n     *\n     * Requirements:\n     * - Subtraction cannot overflow.\n     */\n    function sub(uint256 a, uint256 b) internal pure returns (uint256) {\n        return sub(a, b, \"SafeMath: subtraction overflow\");\n    }\n\n    /**\n     * @dev Returns the subtraction of two unsigned integers, reverting with custom message on\n     * overflow (when the result is negative).\n     *\n     * Counterpart to Solidity's `-` operator.\n     *\n     * Requirements:\n     * - Subtraction cannot overflow.\n     *\n     * _Available since v2.4.0._\n     */\n    function sub(uint256 a, uint256 b, string memory errorMessage) internal pure returns (uint256) {\n        require(b <= a, errorMessage);\n        uint256 c = a - b;\n\n        return c;\n    }\n\n    /**\n     * @dev Returns the multiplication of two unsigned integers, reverting on\n     * overflow.\n     *\n     * Counterpart to Solidity's `*` operator.\n     *\n     * Requirements:\n     * - Multiplication cannot overflow.\n     */\n    function mul(uint256 a, uint256 b) internal pure returns (uint256) {\n        // Gas optimization: this is cheaper than requiring 'a' not being zero, but the\n        // benefit is lost if 'b' is also tested.\n        // See: https://github.com/OpenZeppelin/openzeppelin-contracts/pull/522\n        if (a == 0) {\n            return 0;\n        }\n\n        uint256 c = a * b;\n        require(c / a == b, \"SafeMath: multiplication overflow\");\n\n        return c;\n    }\n\n    /**\n     * @dev Returns the integer division of two unsigned integers. Reverts on\n     * division by zero. The result is rounded towards zero.\n     *\n     * Counterpart to Solidity's `/` operator. Note: this function uses a\n     * `revert` opcode (which leaves remaining gas untouched) while Solidity\n     * uses an invalid opcode to revert (consuming all remaining gas).\n     *\n     * Requirements:\n     * - The divisor cannot be zero.\n     */\n    function div(uint256 a, uint256 b) internal pure returns (uint256) {\n        return div(a, b, \"SafeMath: division by zero\");\n    }\n\n    /**\n     * @dev Returns the integer division of two unsigned integers. Reverts with custom message on\n     * division by zero. The result is rounded towards zero.\n     *\n     * Counterpart to Solidity's `/` operator. Note: this function uses a\n     * `revert` opcode (which leaves remaining gas untouched) while Solidity\n     * uses an invalid opcode to revert (consuming all remaining gas).\n     *\n     * Requirements:\n     * - The divisor cannot be zero.\n     *\n     * _Available since v2.4.0._\n     */\n    function div(uint256 a, uint256 b, string memory errorMessage) internal pure returns (uint256) {\n        // Solidity only automatically asserts when dividing by 0\n        require(b > 0, errorMessage);\n        uint256 c = a / b;\n        // assert(a == b * c + a % b); // There is no case in which this doesn't hold\n\n        return c;\n    }\n\n    /**\n     * @dev Returns the remainder of dividing two unsigned integers. (unsigned integer modulo),\n     * Reverts when dividing by zero.\n     *\n     * Counterpart to Solidity's `%` operator. This function uses a `revert`\n     * opcode (which leaves remaining gas untouched) while Solidity uses an\n     * invalid opcode to revert (consuming all remaining gas).\n     *\n     * Requirements:\n     * - The divisor cannot be zero.\n     */\n    function mod(uint256 a, uint256 b) internal pure returns (uint256) {\n        return mod(a, b, \"SafeMath: modulo by zero\");\n    }\n\n    /**\n     * @dev Returns the remainder of dividing two unsigned integers. (unsigned integer modulo),\n     * Reverts with custom message when dividing by zero.\n     *\n     * Counterpart to Solidity's `%` operator. This function uses a `revert`\n     * opcode (which leaves remaining gas untouched) while Solidity uses an\n     * invalid opcode to revert (consuming all remaining gas).\n     *\n     * Requirements:\n     * - The divisor cannot be zero.\n     *\n     * _Available since v2.4.0._\n     */\n    function mod(uint256 a, uint256 b, string memory errorMessage) internal pure returns (uint256) {\n        require(b != 0, errorMessage);\n        return a % b;\n    }\n}\n\n// File: @openzeppelin/contracts/GSN/Context.sol\n\npragma solidity 0.5.16;\n\n/*\n * @dev Provides information about the current execution context, including the\n * sender of the transaction and its data. While these are generally available\n * via msg.sender and msg.data, they should not be accessed in such a direct\n * manner, since when dealing with GSN meta-transactions the account sending and\n * paying for execution may not be the actual sender (as far as an application\n * is concerned).\n *\n * This contract is only required for intermediate, library-like contracts.\n */\ncontract Context {\n    // Empty internal constructor, to prevent people from mistakenly deploying\n    // an instance of this contract, which should be used via inheritance.\n    constructor () internal { }\n    // solhint-disable-previous-line no-empty-blocks\n\n    function _msgSender() internal view returns (address payable) {\n        return msg.sender;\n    }\n\n    function _msgData() internal view returns (bytes memory) {\n        this; // silence state mutability warning without generating bytecode - see https://github.com/ethereum/solidity/issues/2691\n        return msg.data;\n    }\n}\n\n// File: @openzeppelin/contracts/ownership/Ownable.sol\n\npragma solidity 0.5.16;\n\n/**\n * @dev Contract module which provides a basic access control mechanism, where\n * there is an account (an owner) that can be granted exclusive access to\n * specific functions.\n *\n * This module is used through inheritance. It will make available the modifier\n * `onlyOwner`, which can be applied to your functions to restrict their use to\n * the owner.\n */\ncontract Ownable is Context {\n    address private _owner;\n\n    event OwnershipTransferred(address indexed previousOwner, address indexed newOwner);\n\n    /**\n     * @dev Initializes the contract setting the deployer as the initial owner.\n     */\n    constructor () internal {\n        _owner = _msgSender();\n        emit OwnershipTransferred(address(0), _owner);\n    }\n\n    /**\n     * @dev Returns the address of the current owner.\n     */\n    function owner() public view returns (address) {\n        return _owner;\n    }\n\n    /**\n     * @dev Throws if called by any account other than the owner.\n     */\n    modifier onlyOwner() {\n        require(isOwner(), \"Ownable: caller is not the owner\");\n        _;\n    }\n\n    /**\n     * @dev Returns true if the caller is the current owner.\n     */\n    function isOwner() public view returns (bool) {\n        return _msgSender() == _owner;\n    }\n\n    /**\n     * @dev Leaves the contract without owner. It will not be possible to call\n     * `onlyOwner` functions anymore. Can only be called by the current owner.\n     *\n     * NOTE: Renouncing ownership will leave the contract without an owner,\n     * thereby removing any functionality that is only available to the owner.\n     */\n    function renounceOwnership() public onlyOwner {\n        emit OwnershipTransferred(_owner, address(0));\n        _owner = address(0);\n    }\n\n    /**\n     * @dev Transfers ownership of the contract to a new account (`newOwner`).\n     * Can only be called by the current owner.\n     */\n    function transferOwnership(address newOwner) public onlyOwner {\n        _transferOwnership(newOwner);\n    }\n\n    /**\n     * @dev Transfers ownership of the contract to a new account (`newOwner`).\n     */\n    function _transferOwnership(address newOwner) internal {\n        require(newOwner != address(0), \"Ownable: new owner is the zero address\");\n        emit OwnershipTransferred(_owner, newOwner);\n        _owner = newOwner;\n    }\n}\n\n// File: @openzeppelin/contracts/token/ERC20/IERC20.sol\n\npragma solidity 0.5.16;\n\n/**\n * @dev Interface of the ERC20 standard as defined in the EIP. Does not include\n * the optional functions; to access them see {ERC20Detailed}.\n */\ninterface IERC20 {\n    /**\n     * @dev Returns the amount of tokens in existence.\n     */\n    function totalSupply() external view returns (uint256);\n\n    /**\n     * @dev Returns the amount of tokens owned by `account`.\n     */\n    function balanceOf(address account) external view returns (uint256);\n\n    /**\n     * @dev Moves `amount` tokens from the caller's account to `recipient`.\n     *\n     * Returns a boolean value indicating whether the operation succeeded.\n     *\n     * Emits a {Transfer} event.\n     */\n    function transfer(address recipient, uint256 amount) external returns (bool);\n    function mint(address account, uint amount) external;\n\n    /**\n     * @dev Returns the remaining number of tokens that `spender` will be\n     * allowed to spend on behalf of `owner` through {transferFrom}. This is\n     * zero by default.\n     *\n     * This value changes when {approve} or {transferFrom} are called.\n     */\n    function allowance(address owner, address spender) external view returns (uint256);\n\n    /**\n     * @dev Sets `amount` as the allowance of `spender` over the caller's tokens.\n     *\n     * Returns a boolean value indicating whether the operation succeeded.\n     *\n     * IMPORTANT: Beware that changing an allowance with this method brings the risk\n     * that someone may use both the old and the new allowance by unfortunate\n     * transaction ordering. One possible solution to mitigate this race\n     * condition is to first reduce the spender's allowance to 0 and set the\n     * desired value afterwards:\n     * https://github.com/ethereum/EIPs/issues/20#issuecomment-263524729\n     *\n     * Emits an {Approval} event.\n     */\n    function approve(address spender, uint256 amount) external returns (bool);\n\n    /**\n     * @dev Moves `amount` tokens from `sender` to `recipient` using the\n     * allowance mechanism. `amount` is then deducted from the caller's\n     * allowance.\n     *\n     * Returns a boolean value indicating whether the operation succeeded.\n     *\n     * Emits a {Transfer} event.\n     */\n    function transferFrom(address sender, address recipient, uint256 amount) external returns (bool);\n\n    /**\n     * @dev Emitted when `value` tokens are moved from one account (`from`) to\n     * another (`to`).\n     *\n     * Note that `value` may be zero.\n     */\n    event Transfer(address indexed from, address indexed to, uint256 value);\n\n    /**\n     * @dev Emitted when the allowance of a `spender` for an `owner` is set by\n     * a call to {approve}. `value` is the new allowance.\n     */\n    event Approval(address indexed owner, address indexed spender, uint256 value);\n}\n\n// File: @openzeppelin/contracts/utils/Address.sol\n\npragma solidity 0.5.16;\n\n/**\n * @dev Collection of functions related to the address type\n */\nlibrary Address {\n    /**\n     * @dev Returns true if `account` is a contract.\n     *\n     * This test is non-exhaustive, and there may be false-negatives: during the\n     * execution of a contract's constructor, its address will be reported as\n     * not containing a contract.\n     *\n     * IMPORTANT: It is unsafe to assume that an address for which this\n     * function returns false is an externally-owned account (EOA) and not a\n     * contract.\n     */\n    function isContract(address account) internal view returns (bool) {\n        // This method relies in extcodesize, which returns 0 for contracts in\n        // construction, since the code is only stored at the end of the\n        // constructor execution.\n\n        // According to EIP-1052, 0x0 is the value returned for not-yet created accounts\n        // and 0xc5d2460186f7233c927e7db2dcc703c0e500b653ca82273b7bfad8045d85a470 is returned\n        // for accounts without code, i.e. `keccak256('')`\n        bytes32 codehash;\n        bytes32 accountHash = 0xc5d2460186f7233c927e7db2dcc703c0e500b653ca82273b7bfad8045d85a470;\n        // solhint-disable-next-line no-inline-assembly\n        assembly { codehash := extcodehash(account) }\n        return (codehash != 0x0 && codehash != accountHash);\n    }\n\n    /**\n     * @dev Converts an `address` into `address payable`. Note that this is\n     * simply a type cast: the actual underlying value is not changed.\n     *\n     * _Available since v2.4.0._\n     */\n    function toPayable(address account) internal pure returns (address payable) {\n        return address(uint160(account));\n    }\n\n    /**\n     * @dev Replacement for Solidity's `transfer`: sends `amount` wei to\n     * `recipient`, forwarding all available gas and reverting on errors.\n     *\n     * https://eips.ethereum.org/EIPS/eip-1884[EIP1884] increases the gas cost\n     * of certain opcodes, possibly making contracts go over the 2300 gas limit\n     * imposed by `transfer`, making them unable to receive funds via\n     * `transfer`. {sendValue} removes this limitation.\n     *\n     * https://diligence.consensys.net/posts/2019/09/stop-using-soliditys-transfer-now/[Learn more].\n     *\n     * IMPORTANT: because control is transferred to `recipient`, care must be\n     * taken to not create reentrancy vulnerabilities. Consider using\n     * {ReentrancyGuard} or the\n     * https://solidity.readthedocs.io/en/v0.5.11/security-considerations.html#use-the-checks-effects-interactions-pattern[checks-effects-interactions pattern].\n     *\n     * _Available since v2.4.0._\n     */\n    function sendValue(address payable recipient, uint256 amount) internal {\n        require(address(this).balance >= amount, \"Address: insufficient balance\");\n\n        // solhint-disable-next-line avoid-call-value\n        (bool success, ) = recipient.call.value(amount)(\"\");\n        require(success, \"Address: unable to send value, recipient may have reverted\");\n    }\n}\n\n// File: @openzeppelin/contracts/token/ERC20/SafeERC20.sol\n\npragma solidity 0.5.16;\n\n\n\n\n/**\n * @title SafeERC20\n * @dev Wrappers around ERC20 operations that throw on failure (when the token\n * contract returns false). Tokens that return no value (and instead revert or\n * throw on failure) are also supported, non-reverting calls are assumed to be\n * successful.\n * To use this library you can add a `using SafeERC20 for ERC20;` statement to your contract,\n * which allows you to call the safe operations as `token.safeTransfer(...)`, etc.\n */\nlibrary SafeERC20 {\n    using SafeMath for uint256;\n    using Address for address;\n\n    function safeTransfer(IERC20 token, address to, uint256 value) internal {\n        callOptionalReturn(token, abi.encodeWithSelector(token.transfer.selector, to, value));\n    }\n\n    function safeTransferFrom(IERC20 token, address from, address to, uint256 value) internal {\n        callOptionalReturn(token, abi.encodeWithSelector(token.transferFrom.selector, from, to, value));\n    }\n\n    function safeApprove(IERC20 token, address spender, uint256 value) internal {\n        // safeApprove should only be called when setting an initial allowance,\n        // or when resetting it to zero. To increase and decrease it, use\n        // 'safeIncreaseAllowance' and 'safeDecreaseAllowance'\n        // solhint-disable-next-line max-line-length\n        require((value == 0) || (token.allowance(address(this), spender) == 0),\n            \"SafeERC20: approve from non-zero to non-zero allowance\"\n        );\n        callOptionalReturn(token, abi.encodeWithSelector(token.approve.selector, spender, value));\n    }\n\n    function safeIncreaseAllowance(IERC20 token, address spender, uint256 value) internal {\n        uint256 newAllowance = token.allowance(address(this), spender).add(value);\n        callOptionalReturn(token, abi.encodeWithSelector(token.approve.selector, spender, newAllowance));\n    }\n\n    function safeDecreaseAllowance(IERC20 token, address spender, uint256 value) internal {\n        uint256 newAllowance = token.allowance(address(this), spender).sub(value, \"SafeERC20: decreased allowance below zero\");\n        callOptionalReturn(token, abi.encodeWithSelector(token.approve.selector, spender, newAllowance));\n    }\n\n    /**\n     * @dev Imitates a Solidity high-level call (i.e. a regular function call to a contract), relaxing the requirement\n     * on the return value: the return value is optional (but if data is returned, it must not be false).\n     * @param token The token targeted by the call.\n     * @param data The call data (encoded using abi.encode or one of its variants).\n     */\n    function callOptionalReturn(IERC20 token, bytes memory data) private {\n        // We need to perform a low level call here, to bypass Solidity's return data size checking mechanism, since\n        // we're implementing it ourselves.\n\n        // A Solidity high level call has three parts:\n        //  1. The target address is checked to verify it contains contract code\n        //  2. The call itself is made, and success asserted\n        //  3. The return value is decoded, which in turn checks the size of the returned data.\n        // solhint-disable-next-line max-line-length\n        require(address(token).isContract(), \"SafeERC20: call to non-contract\");\n\n        // solhint-disable-next-line avoid-low-level-calls\n        (bool success, bytes memory returndata) = address(token).call(data);\n        require(success, \"SafeERC20: low-level call failed\");\n\n        if (returndata.length > 0) { // Return data is optional\n            // solhint-disable-next-line max-line-length\n            require(abi.decode(returndata, (bool)), \"SafeERC20: ERC20 operation did not succeed\");\n        }\n    }\n}\n\n/**\n * Reward Amount Interface\n */\npragma solidity 0.5.16;\n\ncontract IRewardDistributionRecipient is Ownable {\n    address rewardDistribution;\n\n    function notifyRewardAmount(uint256 reward) external;\n\n    modifier onlyRewardDistribution() {\n        require(_msgSender() == rewardDistribution, \"Caller is not reward distribution\");\n        _;\n    }\n\n    function setRewardDistribution(address _rewardDistribution)\n        external\n        onlyOwner\n    {\n        rewardDistribution = _rewardDistribution;\n    }\n}\n\n/**\n * Staking Token Wrapper\n */\npragma solidity 0.5.16;\n\ncontract StakeTokenWrapper {\n    using SafeMath for uint256;\n    using SafeERC20 for IERC20;\n\n    IERC20 public stakeToken = IERC20(0x44584BA6694C02AE90937f3c92DA0022c61C52e0); \n\n    uint256 private _totalSupply;\n    mapping(address => uint256) private _balances;\n\n    function totalSupply() public view returns (uint256) {\n        return _totalSupply;\n    }\n\n    function balanceOf(address account) public view returns (uint256) {\n        return _balances[account];\n    }\n\n    function stake(uint256 amount) public {\n        _totalSupply = _totalSupply.add(amount);\n        _balances[msg.sender] = _balances[msg.sender].add(amount);\n        stakeToken.safeTransferFrom(msg.sender, address(this), amount);\n    }\n\n    function withdraw(uint256 amount) public {\n        _totalSupply = _totalSupply.sub(amount);\n        _balances[msg.sender] = _balances[msg.sender].sub(amount);\n        stakeToken.safeTransfer(msg.sender, amount);\n    }\n}\n\n/**\n * Eth Pool\n */\npragma solidity 0.5.16;\n\ncontract DEFIPool is StakeTokenWrapper, IRewardDistributionRecipient {\n    IERC20 public defi = IERC20(0x1A99Cc6A028f55800f866463Cc7708BDEFd4fB2C);\n    \n    address payable public projectAddress;\n    uint256 public constant DURATION = 10 minutes;\n    uint256 public constant RewardDuration = 2 minutes;\n    uint256 public constant startTime = 1605529094; //utc+8 2020-09-09 20:00:00\n    uint256 public periodFinish = 0;\n    uint256 public rewardRate = 0;\n    uint256 public lastUpdateTime;\n    uint256 public rewardPerTokenStored = 0;\n    uint256[] public stakePool = new uint256[](1);\n    uint256[] public withdrawPool = new uint256[](1);\n    uint256[] public burnPool = new uint256[](1);\n    bool private open = true;\n    uint256 private constant _gunit = 1e18;\n    \n    struct Deposit {\n      uint256 amount;\n      uint256 withdrawAmount;\n      uint256 stakeTime;\n      uint256 stakeRewardPerTokenStored;\n      uint256 round;\n   }\n   \n   struct User {\n      Deposit[] deposits;\n   }\n    \n    mapping(address => uint256) public userRewardPerTokenPaid; \n    mapping(address => uint256) public rewards; // Unclaimed rewards\n    mapping (address => User) internal users;\n\n    event RewardAdded(uint256 reward);\n    event Staked(address indexed user, uint256 amount);\n    event Withdrawn(address indexed user, uint256 amount);\n    event RewardPaid(address indexed user, uint256 reward);\n    event SetOpen(bool _open);\n\n    constructor(address payable projectAddr) public {\n        projectAddress = projectAddr;\n    }\n    \n    function _autoExendArray(uint256[] storage arr, uint256 index) internal{\n        if(index >= arr.length){\n            arr.length = index.add(1);\n        }\n    }\n    \n    function getRound(uint256 beginTime) public view returns (uint256) {\n        return block.timestamp.sub(beginTime).div(RewardDuration);\n    }\n    \n    function getUser(address adrr,uint256 index) public view returns (uint256,uint256,uint256,uint256,uint256) {\n        return (users[adrr].deposits[index].amount,users[adrr].deposits[index].withdrawAmount,users[adrr].deposits[index].stakeTime,users[adrr].deposits[index].stakeRewardPerTokenStored,users[adrr].deposits[index].round);\n    }\n    \n    function getBurnPoolReward(uint256 index) public view returns (uint256) {\n        if(index >= burnPool.length) return 0;\n        return burnPool[index];\n    }\n\n    modifier updateReward(address account) {\n        rewardPerTokenStored = rewardPerToken();\n        lastUpdateTime = lastTimeRewardApplicable();\n        if (account != address(0)) {\n            rewards[account] = earned(account);\n            userRewardPerTokenPaid[account] = rewardPerTokenStored;\n        }\n        _;\n    }\n\n    function lastTimeRewardApplicable() public view returns (uint256) {\n        return Math.min(block.timestamp, periodFinish);\n    }\n\n    /**\n     * Calculate the rewards for each token\n     */\n    function rewardPerToken() public view returns (uint256) {\n        if (totalSupply() == 0) {\n            return rewardPerTokenStored;\n        }\n        return\n            rewardPerTokenStored.add(\n                lastTimeRewardApplicable()\n                    .sub(lastUpdateTime)\n                    .mul(rewardRate)\n                    .mul(_gunit)\n                    .div(totalSupply())\n            );\n    }\n\n    function earned(address account) public view returns (uint256) {\n        return\n            balanceOf(account)\n                .mul(rewardPerToken().sub(userRewardPerTokenPaid[account]))\n                .div(_gunit)\n                .add(rewards[account]);\n    }\n\n    function stake(uint256 amount) public checkOpen checkStart updateReward(msg.sender){ \n        require(amount > 0, \"Cannot stake 0\");\n        super.stake(amount);\n        uint256 round = getRound(startTime);\n        _autoExendArray(stakePool,round);\n        _autoExendArray(withdrawPool,round);\n        stakePool[round] = stakePool[round].add(amount);\n        uint256 updateTime = lastTimeRewardApplicable();\n        users[msg.sender].deposits.push(Deposit(amount, 0, updateTime, rewardPerTokenStored,round));\n        emit Staked(msg.sender, amount);\n    }\n\n    function withdraw(uint256 amount) public checkStart updateReward(msg.sender){\n        require(amount > 0, \"Cannot withdraw 0\");\n        super.withdraw(amount);\n        uint256 round = getRound(startTime);\n        _autoExendArray(withdrawPool,round);\n        _autoExendArray(stakePool,round);\n        withdrawPool[round] = withdrawPool[round].add(amount);\n        uint256 totalAmount = amount;\n        for (uint256 i = 0; i < users[msg.sender].deposits.length; i++) {\n            uint256 userAmount = users[msg.sender].deposits[i].amount;\n            if(totalAmount == 0 ) break;\n            if(userAmount >= totalAmount){\n                users[msg.sender].deposits[i].withdrawAmount = totalAmount;\n                totalAmount = 0;\n            }else{\n                users[msg.sender].deposits[i].withdrawAmount = totalAmount;\n                totalAmount = totalAmount.sub(userAmount);\n            }\n        }\n        emit Withdrawn(msg.sender, amount);\n    }\n\n    function exit() external {\n        getReward();\n        withdraw(balanceOf(msg.sender));\n    }\n\n    function getReward() public checkStart updateReward(msg.sender){\n        uint256 reward = earned(msg.sender);\n        if (reward > 0) {\n            rewards[msg.sender] = 0;\n            uint256 taxAmount = tax(msg.sender);\n            uint256 burnRewardAmount = burnReward(msg.sender);\n            uint256 round = getRound(startTime);\n            _autoExendArray(burnPool,round);\n            burnPool[round] = burnPool[round].add(taxAmount);\n            defi.safeTransfer(projectAddress, reward.div(10));\n            defi.safeTransfer(msg.sender, reward.mul(9).div(10).sub(taxAmount).add(burnRewardAmount));\n            uint256 updateTime = lastTimeRewardApplicable();\n            for (uint256 i = 0; i < users[msg.sender].deposits.length; i++) {\n                users[msg.sender].deposits[i].amount = users[msg.sender].deposits[i].amount.sub(users[msg.sender].deposits[i].withdrawAmount);\n                users[msg.sender].deposits[i].withdrawAmount = 0;\n                users[msg.sender].deposits[i].stakeTime = updateTime;\n                users[msg.sender].deposits[i].stakeRewardPerTokenStored = userRewardPerTokenPaid[msg.sender];\n                users[msg.sender].deposits[i].round = round;\n            }\n            emit RewardPaid(msg.sender, reward);\n        }\n    }\n    \n    function getTaxRate(uint256 stakeTime) public view returns(uint256) {\n        uint256 taxRate = lastTimeRewardApplicable()\n                                .sub(stakeTime)\n                                .mul(100)\n                                .div(RewardDuration)\n                                .div(3);\n        return taxRate;\n    }\n\n    function tax(address account) public view returns(uint256) {\n        uint256 taxAmount = 0;\n        uint256 taxRewardPerToken = rewardPerToken();\n        for(uint256 i = 0; i < users[account].deposits.length; i++) {\n            if(users[account].deposits[i].amount != 0){\n                uint256 taxRate = getTaxRate(users[account].deposits[i].stakeTime);\n                if(taxRate < 100) {\n                    taxRate = uint256(100).sub(taxRate);\n                    uint256 userRewardPerToken = taxRewardPerToken.sub(users[account].deposits[i].stakeRewardPerTokenStored);\n                    uint256 amount =  users[account].deposits[i].amount;\n                    taxAmount = taxAmount.add(\n                        amount\n                            .mul(userRewardPerToken)\n                            .mul(9)\n                            .div(10)\n                            .mul(3)\n                            .div(10)\n                            .mul(taxRate)\n                        );\n                }\n            }\n        }\n        return taxAmount.div(_gunit).div(100);\n    }\n    \n     function burnReward(address account) public view returns(uint256) {\n        if(stakePool.length <= 3 || withdrawPool.length <= 3 || users[account].deposits.length == 0){\n            return 0;\n        }\n        uint256 burnClaim = 0;\n        uint256 lastTime = lastTimeRewardApplicable();\n        uint256 endIndex =  getRound(lastTime);\n        \n        for (uint256 i = 0; i < users[account].deposits.length; i++) {\n            if(users[account].deposits[i].amount != 0){\n                uint256[] memory stakeRealAmountArr = new uint256[](3);\n                if(users[account].deposits[i].round == 0){\n                    uint256 stakeRealAmount = 0;\n                    uint256 reward = 0;\n                    for(uint256 j = 0; j < 3; j++){\n                        stakeRealAmount = stakeRealAmount.add(stakePool[i]).sub(withdrawPool[i]);\n                        stakeRealAmountArr[j] = stakeRealAmount;\n                        reward = reward.add(burnPool[i]);\n                    }\n                    stakeRealAmount =  Math.min(Math.min(stakeRealAmountArr[0],stakeRealAmountArr[1]),stakeRealAmountArr[2]);\n                    burnClaim = burnClaim.add(\n                        reward.mul(users[account].deposits[i].amount).div(stakeRealAmount)\n                    );\n                    \n                }\n                else{\n                    uint256 stakeRealAmount = 0;\n                    for(uint256 j = 0; j < users[account].deposits[i].round; j++){\n                        stakeRealAmount = stakeRealAmount.add(stakePool[i]).sub(withdrawPool[i]);\n                        stakeRealAmountArr[j%3] = stakeRealAmount;\n                    }\n                    for(uint256 j = users[account].deposits[i].round; j < endIndex; j++){\n                        if(stakeRealAmount != 0) {\n                            stakeRealAmount =  Math.min(Math.min(stakeRealAmountArr[0],stakeRealAmountArr[1]),stakeRealAmountArr[2]);\n                            uint256 round = users[account].deposits[i].round;\n                            uint256 amount = users[account].deposits[i].amount;\n                            burnClaim = burnClaim.add( burnPool[round].mul(amount).div(stakeRealAmount) );                            \n                        }\n                    }\n                }\n            }\n        }\n        \n        return burnClaim;\n    }\n\n    modifier checkStart(){\n        require(block.timestamp > startTime,\"Not start\");\n        _;\n    }\n\n    modifier checkOpen() {\n        require(open, \"Pool is closed\");\n        _;\n    }\n\n    function getPeriodFinish() external view returns (uint256) {\n        return periodFinish;\n    }\n\n    function isOpen() external view returns (bool) {\n        return open;\n    }\n\n    function setOpen(bool _open) external onlyOwner {\n        open = _open;\n        emit SetOpen(_open);\n    }\n\n    function notifyRewardAmount(uint256 reward)\n        external\n        onlyRewardDistribution\n        checkOpen\n        updateReward(address(0)){\n        if (block.timestamp > startTime){\n            if (block.timestamp >= periodFinish) {\n                uint256 period = block.timestamp.sub(startTime).div(DURATION).add(1);\n                periodFinish = startTime.add(period.mul(DURATION));\n                rewardRate = reward.div(periodFinish.sub(block.timestamp));\n            } else {\n                uint256 remaining = periodFinish.sub(block.timestamp);\n                uint256 leftover = remaining.mul(rewardRate);\n                rewardRate = reward.add(leftover).div(remaining);\n            }\n            lastUpdateTime = block.timestamp;\n        }else {\n          rewardRate = reward.div(DURATION);\n          periodFinish = startTime.add(DURATION);\n          lastUpdateTime = startTime;\n        }\n\n        defi.mint(address(this),reward);\n        emit RewardAdded(reward);\n\n        // avoid overflow to lock assets\n        _checkRewardRate();\n    }\n    \n    function _checkRewardRate() internal view returns (uint256) {\n        return DURATION.mul(rewardRate).mul(_gunit);\n    }\n}",
  "sourcePath": "/Users/aemoe/Desktop/contract/contracts/pool/DEFIPool.sol",
  "compiler": {
    "name": "solc",
    "version": "0.5.16+commit.9c3226ce.Emscripten.clang"
  },
  "schemaVersion": "3.2.5",
  "updatedAt": "2020-11-16T12:34:39.189Z",
  "devdoc": {
    "methods": {}
  },
  "userdoc": {
    "methods": {}
  }
}